{
	"contracts/Lottery.sol": {
		"Lottery": {
			"abi": [
				{
					"inputs": [],
					"stateMutability": "nonpayable",
					"type": "constructor"
				},
				{
					"inputs": [],
					"name": "enter",
					"outputs": [],
					"stateMutability": "payable",
					"type": "function"
				},
				{
					"inputs": [],
					"name": "manager",
					"outputs": [
						{
							"internalType": "address",
							"name": "",
							"type": "address"
						}
					],
					"stateMutability": "view",
					"type": "function"
				},
				{
					"inputs": [],
					"name": "pickWinner",
					"outputs": [],
					"stateMutability": "nonpayable",
					"type": "function"
				},
				{
					"inputs": [
						{
							"internalType": "uint256",
							"name": "",
							"type": "uint256"
						}
					],
					"name": "players",
					"outputs": [
						{
							"internalType": "address",
							"name": "",
							"type": "address"
						}
					],
					"stateMutability": "view",
					"type": "function"
				}
			],
			"devdoc": {
				"kind": "dev",
				"methods": {},
				"version": 1
			},
			"evm": {
				"assembly": "    /* \"contracts/Lottery.sol\":74:877  contract Lottery {\r... */\n  mstore(0x40, 0x80)\n    /* \"contracts/Lottery.sol\":160:213  constructor() {\r... */\n  callvalue\n  dup1\n  iszero\n  tag_1\n  jumpi\n  0x00\n  dup1\n  revert\ntag_1:\n  pop\n    /* \"contracts/Lottery.sol\":195:205  msg.sender */\n  caller\n    /* \"contracts/Lottery.sol\":185:192  manager */\n  0x00\n  dup1\n    /* \"contracts/Lottery.sol\":185:205  manager = msg.sender */\n  0x0100\n  exp\n  dup2\n  sload\n  dup2\n  0xffffffffffffffffffffffffffffffffffffffff\n  mul\n  not\n  and\n  swap1\n  dup4\n  0xffffffffffffffffffffffffffffffffffffffff\n  and\n  mul\n  or\n  swap1\n  sstore\n  pop\n    /* \"contracts/Lottery.sol\":74:877  contract Lottery {\r... */\n  dataSize(sub_0)\n  dup1\n  dataOffset(sub_0)\n  0x00\n  codecopy\n  0x00\n  return\nstop\n\nsub_0: assembly {\n        /* \"contracts/Lottery.sol\":74:877  contract Lottery {\r... */\n      mstore(0x40, 0x80)\n      jumpi(tag_1, lt(calldatasize, 0x04))\n      shr(0xe0, calldataload(0x00))\n      dup1\n      0x481c6a75\n      eq\n      tag_2\n      jumpi\n      dup1\n      0x5d495aea\n      eq\n      tag_3\n      jumpi\n      dup1\n      0xe97dcb62\n      eq\n      tag_4\n      jumpi\n      dup1\n      0xf71d96cb\n      eq\n      tag_5\n      jumpi\n    tag_1:\n      0x00\n      dup1\n      revert\n        /* \"contracts/Lottery.sol\":98:120  address public manager */\n    tag_2:\n      callvalue\n      dup1\n      iszero\n      tag_6\n      jumpi\n      0x00\n      dup1\n      revert\n    tag_6:\n      pop\n      tag_7\n      tag_8\n      jump\t// in\n    tag_7:\n      mload(0x40)\n      tag_9\n      swap2\n      swap1\n      tag_10\n      jump\t// in\n    tag_9:\n      mload(0x40)\n      dup1\n      swap2\n      sub\n      swap1\n      return\n        /* \"contracts/Lottery.sol\":641:874  function pickWinner() public {\r... */\n    tag_3:\n      callvalue\n      dup1\n      iszero\n      tag_11\n      jumpi\n      0x00\n      dup1\n      revert\n    tag_11:\n      pop\n      tag_12\n      tag_13\n      jump\t// in\n    tag_12:\n      stop\n        /* \"contracts/Lottery.sol\":221:377  function enter() public payable {\r... */\n    tag_4:\n      tag_14\n      tag_15\n      jump\t// in\n    tag_14:\n      stop\n        /* \"contracts/Lottery.sol\":127:151  address[] public players */\n    tag_5:\n      callvalue\n      dup1\n      iszero\n      tag_16\n      jumpi\n      0x00\n      dup1\n      revert\n    tag_16:\n      pop\n      tag_17\n      0x04\n      dup1\n      calldatasize\n      sub\n      dup2\n      add\n      swap1\n      tag_18\n      swap2\n      swap1\n      tag_19\n      jump\t// in\n    tag_18:\n      tag_20\n      jump\t// in\n    tag_17:\n      mload(0x40)\n      tag_21\n      swap2\n      swap1\n      tag_10\n      jump\t// in\n    tag_21:\n      mload(0x40)\n      dup1\n      swap2\n      sub\n      swap1\n      return\n        /* \"contracts/Lottery.sol\":98:120  address public manager */\n    tag_8:\n      0x00\n      dup1\n      sload\n      swap1\n      0x0100\n      exp\n      swap1\n      div\n      0xffffffffffffffffffffffffffffffffffffffff\n      and\n      dup2\n      jump\t// out\n        /* \"contracts/Lottery.sol\":641:874  function pickWinner() public {\r... */\n    tag_13:\n        /* \"contracts/Lottery.sol\":703:710  manager */\n      0x00\n      dup1\n      sload\n      swap1\n      0x0100\n      exp\n      swap1\n      div\n      0xffffffffffffffffffffffffffffffffffffffff\n      and\n        /* \"contracts/Lottery.sol\":689:710  msg.sender == manager */\n      0xffffffffffffffffffffffffffffffffffffffff\n      and\n        /* \"contracts/Lottery.sol\":689:699  msg.sender */\n      caller\n        /* \"contracts/Lottery.sol\":689:710  msg.sender == manager */\n      0xffffffffffffffffffffffffffffffffffffffff\n      and\n      eq\n        /* \"contracts/Lottery.sol\":681:711  require(msg.sender == manager) */\n      tag_23\n      jumpi\n      0x00\n      dup1\n      revert\n    tag_23:\n        /* \"contracts/Lottery.sol\":722:735  uint256 index */\n      0x00\n        /* \"contracts/Lottery.sol\":749:756  players */\n      0x01\n        /* \"contracts/Lottery.sol\":749:763  players.length */\n      dup1\n      sload\n      swap1\n      pop\n        /* \"contracts/Lottery.sol\":738:746  random() */\n      tag_24\n        /* \"contracts/Lottery.sol\":738:744  random */\n      tag_25\n        /* \"contracts/Lottery.sol\":738:746  random() */\n      jump\t// in\n    tag_24:\n        /* \"contracts/Lottery.sol\":738:763  random() % players.length */\n      tag_26\n      swap2\n      swap1\n      tag_27\n      jump\t// in\n    tag_26:\n        /* \"contracts/Lottery.sol\":722:763  uint256 index = random() % players.length */\n      swap1\n      pop\n        /* \"contracts/Lottery.sol\":782:789  players */\n      0x01\n        /* \"contracts/Lottery.sol\":790:795  index */\n      dup2\n        /* \"contracts/Lottery.sol\":782:796  players[index] */\n      dup2\n      sload\n      dup2\n      lt\n      tag_28\n      jumpi\n      tag_29\n      tag_30\n      jump\t// in\n    tag_29:\n    tag_28:\n      swap1\n      0x00\n      mstore\n      keccak256(0x00, 0x20)\n      add\n      0x00\n      swap1\n      sload\n      swap1\n      0x0100\n      exp\n      swap1\n      div\n      0xffffffffffffffffffffffffffffffffffffffff\n      and\n        /* \"contracts/Lottery.sol\":774:806  payable(players[index]).transfer */\n      0xffffffffffffffffffffffffffffffffffffffff\n      and\n        /* \"contracts/Lottery.sol\":774:829  payable(players[index]).transfer(address(this).balance) */\n      0x08fc\n        /* \"contracts/Lottery.sol\":807:828  address(this).balance */\n      selfbalance\n        /* \"contracts/Lottery.sol\":774:829  payable(players[index]).transfer(address(this).balance) */\n      swap1\n      dup2\n      iszero\n      mul\n      swap1\n      mload(0x40)\n      0x00\n      mload(0x40)\n      dup1\n      dup4\n      sub\n      dup2\n      dup6\n      dup9\n      dup9\n      call\n      swap4\n      pop\n      pop\n      pop\n      pop\n      iszero\n      dup1\n      iszero\n      tag_33\n      jumpi\n      returndatasize\n      0x00\n      dup1\n      returndatacopy\n      revert(0x00, returndatasize)\n    tag_33:\n      pop\n        /* \"contracts/Lottery.sol\":864:865  0 */\n      0x00\n        /* \"contracts/Lottery.sol\":850:866  new address[](0) */\n      0xffffffffffffffff\n      dup2\n      gt\n      iszero\n      tag_34\n      jumpi\n      tag_35\n      tag_36\n      jump\t// in\n    tag_35:\n    tag_34:\n      mload(0x40)\n      swap1\n      dup1\n      dup3\n      mstore\n      dup1\n      0x20\n      mul\n      0x20\n      add\n      dup3\n      add\n      0x40\n      mstore\n      dup1\n      iszero\n      tag_37\n      jumpi\n      dup2\n      0x20\n      add\n      0x20\n      dup3\n      mul\n      dup1\n      calldatasize\n      dup4\n      calldatacopy\n      dup1\n      dup3\n      add\n      swap2\n      pop\n      pop\n      swap1\n      pop\n    tag_37:\n      pop\n        /* \"contracts/Lottery.sol\":840:847  players */\n      0x01\n        /* \"contracts/Lottery.sol\":840:866  players = new address[](0) */\n      swap1\n      dup1\n      mload\n      swap1\n      0x20\n      add\n      swap1\n      tag_38\n      swap3\n      swap2\n      swap1\n      tag_39\n      jump\t// in\n    tag_38:\n      pop\n        /* \"contracts/Lottery.sol\":670:874  {\r... */\n      pop\n        /* \"contracts/Lottery.sol\":641:874  function pickWinner() public {\r... */\n      jump\t// out\n        /* \"contracts/Lottery.sol\":221:377  function enter() public payable {\r... */\n    tag_15:\n        /* \"contracts/Lottery.sol\":284:293  0.1 ether */\n      0x016345785d8a0000\n        /* \"contracts/Lottery.sol\":272:281  msg.value */\n      callvalue\n        /* \"contracts/Lottery.sol\":272:293  msg.value > 0.1 ether */\n      gt\n        /* \"contracts/Lottery.sol\":264:334  require(msg.value > 0.1 ether, \"ether sent is below minimum required\") */\n      tag_41\n      jumpi\n      mload(0x40)\n      0x08c379a000000000000000000000000000000000000000000000000000000000\n      dup2\n      mstore\n      0x04\n      add\n      tag_42\n      swap1\n      tag_43\n      jump\t// in\n    tag_42:\n      mload(0x40)\n      dup1\n      swap2\n      sub\n      swap1\n      revert\n    tag_41:\n        /* \"contracts/Lottery.sol\":345:352  players */\n      0x01\n        /* \"contracts/Lottery.sol\":358:368  msg.sender */\n      caller\n        /* \"contracts/Lottery.sol\":345:369  players.push(msg.sender) */\n      swap1\n      dup1\n      0x01\n      dup2\n      sload\n      add\n      dup1\n      dup3\n      sstore\n      dup1\n      swap2\n      pop\n      pop\n      0x01\n      swap1\n      sub\n      swap1\n      0x00\n      mstore\n      keccak256(0x00, 0x20)\n      add\n      0x00\n      swap1\n      swap2\n      swap1\n      swap2\n      swap1\n      swap2\n      0x0100\n      exp\n      dup2\n      sload\n      dup2\n      0xffffffffffffffffffffffffffffffffffffffff\n      mul\n      not\n      and\n      swap1\n      dup4\n      0xffffffffffffffffffffffffffffffffffffffff\n      and\n      mul\n      or\n      swap1\n      sstore\n      pop\n        /* \"contracts/Lottery.sol\":221:377  function enter() public payable {\r... */\n      jump\t// out\n        /* \"contracts/Lottery.sol\":127:151  address[] public players */\n    tag_20:\n      0x01\n      dup2\n      dup2\n      sload\n      dup2\n      lt\n      tag_45\n      jumpi\n      0x00\n      dup1\n      revert\n    tag_45:\n      swap1\n      0x00\n      mstore\n      keccak256(0x00, 0x20)\n      add\n      0x00\n      swap2\n      pop\n      sload\n      swap1\n      0x0100\n      exp\n      swap1\n      div\n      0xffffffffffffffffffffffffffffffffffffffff\n      and\n      dup2\n      jump\t// out\n        /* \"contracts/Lottery.sol\":385:633  function random() private view returns (uint256) {\r... */\n    tag_25:\n        /* \"contracts/Lottery.sol\":425:432  uint256 */\n      0x00\n        /* \"contracts/Lottery.sol\":548:564  block.difficulty */\n      difficulty\n        /* \"contracts/Lottery.sol\":566:581  block.timestamp */\n      timestamp\n        /* \"contracts/Lottery.sol\":583:590  players */\n      0x01\n        /* \"contracts/Lottery.sol\":531:591  abi.encodePacked(block.difficulty, block.timestamp, players) */\n      add(0x20, mload(0x40))\n      tag_48\n      swap4\n      swap3\n      swap2\n      swap1\n      tag_49\n      jump\t// in\n    tag_48:\n      mload(0x40)\n      0x20\n      dup2\n      dup4\n      sub\n      sub\n      dup2\n      mstore\n      swap1\n      0x40\n      mstore\n        /* \"contracts/Lottery.sol\":499:610  keccak256(\r... */\n      dup1\n      mload\n      swap1\n      0x20\n      add\n      keccak256\n        /* \"contracts/Lottery.sol\":473:625  uint256(\r... */\n      0x00\n      shr\n        /* \"contracts/Lottery.sol\":453:625  return\r... */\n      swap1\n      pop\n        /* \"contracts/Lottery.sol\":385:633  function random() private view returns (uint256) {\r... */\n      swap1\n      jump\t// out\n    tag_39:\n      dup3\n      dup1\n      sload\n      dup3\n      dup3\n      sstore\n      swap1\n      0x00\n      mstore\n      keccak256(0x00, 0x20)\n      swap1\n      dup2\n      add\n      swap3\n      dup3\n      iszero\n      tag_50\n      jumpi\n      swap2\n      0x20\n      mul\n      dup3\n      add\n    tag_51:\n      dup3\n      dup2\n      gt\n      iszero\n      tag_52\n      jumpi\n      dup3\n      mload\n      dup3\n      exp(0x0100, 0x00)\n      dup2\n      sload\n      dup2\n      0xffffffffffffffffffffffffffffffffffffffff\n      mul\n      not\n      and\n      swap1\n      dup4\n      0xffffffffffffffffffffffffffffffffffffffff\n      and\n      mul\n      or\n      swap1\n      sstore\n      pop\n      swap2\n      0x20\n      add\n      swap2\n      swap1\n      0x01\n      add\n      swap1\n      jump(tag_51)\n    tag_52:\n    tag_50:\n      pop\n      swap1\n      pop\n      tag_53\n      swap2\n      swap1\n      tag_54\n      jump\t// in\n    tag_53:\n      pop\n      swap1\n      jump\t// out\n    tag_54:\n    tag_55:\n      dup1\n      dup3\n      gt\n      iszero\n      tag_56\n      jumpi\n      0x00\n      dup2\n      0x00\n      swap1\n      sstore\n      pop\n      0x01\n      add\n      jump(tag_55)\n    tag_56:\n      pop\n      swap1\n      jump\t// out\n        /* \"#utility.yul\":7:146   */\n    tag_58:\n        /* \"#utility.yul\":53:58   */\n      0x00\n        /* \"#utility.yul\":91:97   */\n      dup2\n        /* \"#utility.yul\":78:98   */\n      calldataload\n        /* \"#utility.yul\":69:98   */\n      swap1\n      pop\n        /* \"#utility.yul\":107:140   */\n      tag_60\n        /* \"#utility.yul\":134:139   */\n      dup2\n        /* \"#utility.yul\":107:140   */\n      tag_61\n      jump\t// in\n    tag_60:\n        /* \"#utility.yul\":7:146   */\n      swap3\n      swap2\n      pop\n      pop\n      jump\t// out\n        /* \"#utility.yul\":152:481   */\n    tag_19:\n        /* \"#utility.yul\":211:217   */\n      0x00\n        /* \"#utility.yul\":260:262   */\n      0x20\n        /* \"#utility.yul\":248:257   */\n      dup3\n        /* \"#utility.yul\":239:246   */\n      dup5\n        /* \"#utility.yul\":235:258   */\n      sub\n        /* \"#utility.yul\":231:263   */\n      slt\n        /* \"#utility.yul\":228:347   */\n      iszero\n      tag_63\n      jumpi\n        /* \"#utility.yul\":266:345   */\n      tag_64\n      tag_65\n      jump\t// in\n    tag_64:\n        /* \"#utility.yul\":228:347   */\n    tag_63:\n        /* \"#utility.yul\":386:387   */\n      0x00\n        /* \"#utility.yul\":411:464   */\n      tag_66\n        /* \"#utility.yul\":456:463   */\n      dup5\n        /* \"#utility.yul\":447:453   */\n      dup3\n        /* \"#utility.yul\":436:445   */\n      dup6\n        /* \"#utility.yul\":432:454   */\n      add\n        /* \"#utility.yul\":411:464   */\n      tag_58\n      jump\t// in\n    tag_66:\n        /* \"#utility.yul\":401:464   */\n      swap2\n      pop\n        /* \"#utility.yul\":357:474   */\n      pop\n        /* \"#utility.yul\":152:481   */\n      swap3\n      swap2\n      pop\n      pop\n      jump\t// out\n        /* \"#utility.yul\":487:682   */\n    tag_67:\n        /* \"#utility.yul\":564:574   */\n      0x00\n        /* \"#utility.yul\":585:639   */\n      tag_69\n        /* \"#utility.yul\":635:638   */\n      dup4\n        /* \"#utility.yul\":627:633   */\n      dup4\n        /* \"#utility.yul\":585:639   */\n      tag_70\n      jump\t// in\n    tag_69:\n        /* \"#utility.yul\":671:675   */\n      0x20\n        /* \"#utility.yul\":666:669   */\n      dup4\n        /* \"#utility.yul\":662:676   */\n      add\n        /* \"#utility.yul\":648:676   */\n      swap1\n      pop\n        /* \"#utility.yul\":487:682   */\n      swap3\n      swap2\n      pop\n      pop\n      jump\t// out\n        /* \"#utility.yul\":688:806   */\n    tag_71:\n        /* \"#utility.yul\":775:799   */\n      tag_73\n        /* \"#utility.yul\":793:798   */\n      dup2\n        /* \"#utility.yul\":775:799   */\n      tag_74\n      jump\t// in\n    tag_73:\n        /* \"#utility.yul\":770:773   */\n      dup3\n        /* \"#utility.yul\":763:800   */\n      mstore\n        /* \"#utility.yul\":688:806   */\n      pop\n      pop\n      jump\t// out\n        /* \"#utility.yul\":812:928   */\n    tag_70:\n        /* \"#utility.yul\":897:921   */\n      tag_76\n        /* \"#utility.yul\":915:920   */\n      dup2\n        /* \"#utility.yul\":897:921   */\n      tag_74\n      jump\t// in\n    tag_76:\n        /* \"#utility.yul\":892:895   */\n      dup3\n        /* \"#utility.yul\":885:922   */\n      mstore\n        /* \"#utility.yul\":812:928   */\n      pop\n      pop\n      jump\t// out\n        /* \"#utility.yul\":964:1759   */\n    tag_77:\n        /* \"#utility.yul\":1098:1101   */\n      0x00\n        /* \"#utility.yul\":1127:1178   */\n      tag_79\n        /* \"#utility.yul\":1172:1177   */\n      dup3\n        /* \"#utility.yul\":1127:1178   */\n      tag_80\n      jump\t// in\n    tag_79:\n        /* \"#utility.yul\":1194:1298   */\n      tag_81\n        /* \"#utility.yul\":1291:1297   */\n      dup2\n        /* \"#utility.yul\":1286:1289   */\n      dup6\n        /* \"#utility.yul\":1194:1298   */\n      tag_82\n      jump\t// in\n    tag_81:\n        /* \"#utility.yul\":1187:1298   */\n      swap4\n      pop\n        /* \"#utility.yul\":1322:1375   */\n      tag_83\n        /* \"#utility.yul\":1369:1374   */\n      dup4\n        /* \"#utility.yul\":1322:1375   */\n      tag_84\n      jump\t// in\n    tag_83:\n        /* \"#utility.yul\":1398:1405   */\n      dup1\n        /* \"#utility.yul\":1429:1430   */\n      0x00\n        /* \"#utility.yul\":1414:1734   */\n    tag_85:\n        /* \"#utility.yul\":1439:1445   */\n      dup4\n        /* \"#utility.yul\":1436:1437   */\n      dup2\n        /* \"#utility.yul\":1433:1446   */\n      lt\n        /* \"#utility.yul\":1414:1734   */\n      iszero\n      tag_87\n      jumpi\n        /* \"#utility.yul\":1509:1553   */\n      tag_88\n        /* \"#utility.yul\":1546:1552   */\n      dup3\n        /* \"#utility.yul\":1509:1553   */\n      tag_89\n      jump\t// in\n    tag_88:\n        /* \"#utility.yul\":1573:1644   */\n      tag_90\n        /* \"#utility.yul\":1640:1643   */\n      dup9\n        /* \"#utility.yul\":1625:1638   */\n      dup3\n        /* \"#utility.yul\":1573:1644   */\n      tag_67\n      jump\t// in\n    tag_90:\n        /* \"#utility.yul\":1566:1644   */\n      swap8\n      pop\n        /* \"#utility.yul\":1667:1724   */\n      tag_91\n        /* \"#utility.yul\":1717:1723   */\n      dup4\n        /* \"#utility.yul\":1667:1724   */\n      tag_92\n      jump\t// in\n    tag_91:\n        /* \"#utility.yul\":1657:1724   */\n      swap3\n      pop\n        /* \"#utility.yul\":1474:1734   */\n      pop\n        /* \"#utility.yul\":1461:1462   */\n      0x01\n        /* \"#utility.yul\":1458:1459   */\n      dup2\n        /* \"#utility.yul\":1454:1463   */\n      add\n        /* \"#utility.yul\":1449:1463   */\n      swap1\n      pop\n        /* \"#utility.yul\":1414:1734   */\n      jump(tag_85)\n    tag_87:\n        /* \"#utility.yul\":1418:1432   */\n      pop\n        /* \"#utility.yul\":1750:1753   */\n      dup6\n        /* \"#utility.yul\":1743:1753   */\n      swap4\n      pop\n        /* \"#utility.yul\":1103:1759   */\n      pop\n      pop\n      pop\n        /* \"#utility.yul\":964:1759   */\n      swap3\n      swap2\n      pop\n      pop\n      jump\t// out\n        /* \"#utility.yul\":1765:2131   */\n    tag_93:\n        /* \"#utility.yul\":1907:1910   */\n      0x00\n        /* \"#utility.yul\":1928:1995   */\n      tag_95\n        /* \"#utility.yul\":1992:1994   */\n      0x24\n        /* \"#utility.yul\":1987:1990   */\n      dup4\n        /* \"#utility.yul\":1928:1995   */\n      tag_96\n      jump\t// in\n    tag_95:\n        /* \"#utility.yul\":1921:1995   */\n      swap2\n      pop\n        /* \"#utility.yul\":2004:2097   */\n      tag_97\n        /* \"#utility.yul\":2093:2096   */\n      dup3\n        /* \"#utility.yul\":2004:2097   */\n      tag_98\n      jump\t// in\n    tag_97:\n        /* \"#utility.yul\":2122:2124   */\n      0x40\n        /* \"#utility.yul\":2117:2120   */\n      dup3\n        /* \"#utility.yul\":2113:2125   */\n      add\n        /* \"#utility.yul\":2106:2125   */\n      swap1\n      pop\n        /* \"#utility.yul\":1765:2131   */\n      swap2\n      swap1\n      pop\n      jump\t// out\n        /* \"#utility.yul\":2137:2294   */\n    tag_99:\n        /* \"#utility.yul\":2242:2287   */\n      tag_101\n        /* \"#utility.yul\":2262:2286   */\n      tag_102\n        /* \"#utility.yul\":2280:2285   */\n      dup3\n        /* \"#utility.yul\":2262:2286   */\n      tag_103\n      jump\t// in\n    tag_102:\n        /* \"#utility.yul\":2242:2287   */\n      tag_104\n      jump\t// in\n    tag_101:\n        /* \"#utility.yul\":2237:2240   */\n      dup3\n        /* \"#utility.yul\":2230:2288   */\n      mstore\n        /* \"#utility.yul\":2137:2294   */\n      pop\n      pop\n      jump\t// out\n        /* \"#utility.yul\":2300:2911   */\n    tag_49:\n        /* \"#utility.yul\":2515:2518   */\n      0x00\n        /* \"#utility.yul\":2530:2605   */\n      tag_106\n        /* \"#utility.yul\":2601:2604   */\n      dup3\n        /* \"#utility.yul\":2592:2598   */\n      dup7\n        /* \"#utility.yul\":2530:2605   */\n      tag_99\n      jump\t// in\n    tag_106:\n        /* \"#utility.yul\":2630:2632   */\n      0x20\n        /* \"#utility.yul\":2625:2628   */\n      dup3\n        /* \"#utility.yul\":2621:2633   */\n      add\n        /* \"#utility.yul\":2614:2633   */\n      swap2\n      pop\n        /* \"#utility.yul\":2643:2718   */\n      tag_107\n        /* \"#utility.yul\":2714:2717   */\n      dup3\n        /* \"#utility.yul\":2705:2711   */\n      dup6\n        /* \"#utility.yul\":2643:2718   */\n      tag_99\n      jump\t// in\n    tag_107:\n        /* \"#utility.yul\":2743:2745   */\n      0x20\n        /* \"#utility.yul\":2738:2741   */\n      dup3\n        /* \"#utility.yul\":2734:2746   */\n      add\n        /* \"#utility.yul\":2727:2746   */\n      swap2\n      pop\n        /* \"#utility.yul\":2763:2885   */\n      tag_108\n        /* \"#utility.yul\":2881:2884   */\n      dup3\n        /* \"#utility.yul\":2872:2878   */\n      dup5\n        /* \"#utility.yul\":2763:2885   */\n      tag_77\n      jump\t// in\n    tag_108:\n        /* \"#utility.yul\":2756:2885   */\n      swap2\n      pop\n        /* \"#utility.yul\":2902:2905   */\n      dup2\n        /* \"#utility.yul\":2895:2905   */\n      swap1\n      pop\n        /* \"#utility.yul\":2300:2911   */\n      swap5\n      swap4\n      pop\n      pop\n      pop\n      pop\n      jump\t// out\n        /* \"#utility.yul\":2917:3139   */\n    tag_10:\n        /* \"#utility.yul\":3010:3014   */\n      0x00\n        /* \"#utility.yul\":3048:3050   */\n      0x20\n        /* \"#utility.yul\":3037:3046   */\n      dup3\n        /* \"#utility.yul\":3033:3051   */\n      add\n        /* \"#utility.yul\":3025:3051   */\n      swap1\n      pop\n        /* \"#utility.yul\":3061:3132   */\n      tag_110\n        /* \"#utility.yul\":3129:3130   */\n      0x00\n        /* \"#utility.yul\":3118:3127   */\n      dup4\n        /* \"#utility.yul\":3114:3131   */\n      add\n        /* \"#utility.yul\":3105:3111   */\n      dup5\n        /* \"#utility.yul\":3061:3132   */\n      tag_71\n      jump\t// in\n    tag_110:\n        /* \"#utility.yul\":2917:3139   */\n      swap3\n      swap2\n      pop\n      pop\n      jump\t// out\n        /* \"#utility.yul\":3145:3564   */\n    tag_43:\n        /* \"#utility.yul\":3311:3315   */\n      0x00\n        /* \"#utility.yul\":3349:3351   */\n      0x20\n        /* \"#utility.yul\":3338:3347   */\n      dup3\n        /* \"#utility.yul\":3334:3352   */\n      add\n        /* \"#utility.yul\":3326:3352   */\n      swap1\n      pop\n        /* \"#utility.yul\":3398:3407   */\n      dup2\n        /* \"#utility.yul\":3392:3396   */\n      dup2\n        /* \"#utility.yul\":3388:3408   */\n      sub\n        /* \"#utility.yul\":3384:3385   */\n      0x00\n        /* \"#utility.yul\":3373:3382   */\n      dup4\n        /* \"#utility.yul\":3369:3386   */\n      add\n        /* \"#utility.yul\":3362:3409   */\n      mstore\n        /* \"#utility.yul\":3426:3557   */\n      tag_112\n        /* \"#utility.yul\":3552:3556   */\n      dup2\n        /* \"#utility.yul\":3426:3557   */\n      tag_93\n      jump\t// in\n    tag_112:\n        /* \"#utility.yul\":3418:3557   */\n      swap1\n      pop\n        /* \"#utility.yul\":3145:3564   */\n      swap2\n      swap1\n      pop\n      jump\t// out\n        /* \"#utility.yul\":3651:3807   */\n    tag_84:\n        /* \"#utility.yul\":3715:3719   */\n      0x00\n        /* \"#utility.yul\":3738:3741   */\n      dup2\n        /* \"#utility.yul\":3730:3741   */\n      swap1\n      pop\n        /* \"#utility.yul\":3761:3764   */\n      dup2\n        /* \"#utility.yul\":3758:3759   */\n      0x00\n        /* \"#utility.yul\":3751:3765   */\n      mstore\n        /* \"#utility.yul\":3795:3799   */\n      0x20\n        /* \"#utility.yul\":3792:3793   */\n      0x00\n        /* \"#utility.yul\":3782:3800   */\n      keccak256\n        /* \"#utility.yul\":3774:3800   */\n      swap1\n      pop\n        /* \"#utility.yul\":3651:3807   */\n      swap2\n      swap1\n      pop\n      jump\t// out\n        /* \"#utility.yul\":3813:3924   */\n    tag_80:\n        /* \"#utility.yul\":3877:3883   */\n      0x00\n        /* \"#utility.yul\":3911:3916   */\n      dup2\n        /* \"#utility.yul\":3905:3917   */\n      sload\n        /* \"#utility.yul\":3895:3917   */\n      swap1\n      pop\n        /* \"#utility.yul\":3813:3924   */\n      swap2\n      swap1\n      pop\n      jump\t// out\n        /* \"#utility.yul\":3930:4040   */\n    tag_92:\n        /* \"#utility.yul\":3997:4001   */\n      0x00\n        /* \"#utility.yul\":4029:4033   */\n      0x01\n        /* \"#utility.yul\":4024:4027   */\n      dup3\n        /* \"#utility.yul\":4020:4034   */\n      add\n        /* \"#utility.yul\":4012:4034   */\n      swap1\n      pop\n        /* \"#utility.yul\":3930:4040   */\n      swap2\n      swap1\n      pop\n      jump\t// out\n        /* \"#utility.yul\":4046:4209   */\n    tag_82:\n        /* \"#utility.yul\":4163:4174   */\n      0x00\n        /* \"#utility.yul\":4200:4203   */\n      dup2\n        /* \"#utility.yul\":4185:4203   */\n      swap1\n      pop\n        /* \"#utility.yul\":4046:4209   */\n      swap3\n      swap2\n      pop\n      pop\n      jump\t// out\n        /* \"#utility.yul\":4215:4384   */\n    tag_96:\n        /* \"#utility.yul\":4299:4310   */\n      0x00\n        /* \"#utility.yul\":4333:4339   */\n      dup3\n        /* \"#utility.yul\":4328:4331   */\n      dup3\n        /* \"#utility.yul\":4321:4340   */\n      mstore\n        /* \"#utility.yul\":4373:4377   */\n      0x20\n        /* \"#utility.yul\":4368:4371   */\n      dup3\n        /* \"#utility.yul\":4364:4378   */\n      add\n        /* \"#utility.yul\":4349:4378   */\n      swap1\n      pop\n        /* \"#utility.yul\":4215:4384   */\n      swap3\n      swap2\n      pop\n      pop\n      jump\t// out\n        /* \"#utility.yul\":4390:4529   */\n    tag_120:\n        /* \"#utility.yul\":4440:4447   */\n      0x00\n        /* \"#utility.yul\":4480:4522   */\n      0xffffffffffffffffffffffffffffffffffffffff\n        /* \"#utility.yul\":4473:4478   */\n      dup3\n        /* \"#utility.yul\":4469:4523   */\n      and\n        /* \"#utility.yul\":4458:4523   */\n      swap1\n      pop\n        /* \"#utility.yul\":4390:4529   */\n      swap2\n      swap1\n      pop\n      jump\t// out\n        /* \"#utility.yul\":4535:4631   */\n    tag_74:\n        /* \"#utility.yul\":4572:4579   */\n      0x00\n        /* \"#utility.yul\":4601:4625   */\n      tag_123\n        /* \"#utility.yul\":4619:4624   */\n      dup3\n        /* \"#utility.yul\":4601:4625   */\n      tag_124\n      jump\t// in\n    tag_123:\n        /* \"#utility.yul\":4590:4625   */\n      swap1\n      pop\n        /* \"#utility.yul\":4535:4631   */\n      swap2\n      swap1\n      pop\n      jump\t// out\n        /* \"#utility.yul\":4637:4763   */\n    tag_124:\n        /* \"#utility.yul\":4674:4681   */\n      0x00\n        /* \"#utility.yul\":4714:4756   */\n      0xffffffffffffffffffffffffffffffffffffffff\n        /* \"#utility.yul\":4707:4712   */\n      dup3\n        /* \"#utility.yul\":4703:4757   */\n      and\n        /* \"#utility.yul\":4692:4757   */\n      swap1\n      pop\n        /* \"#utility.yul\":4637:4763   */\n      swap2\n      swap1\n      pop\n      jump\t// out\n        /* \"#utility.yul\":4769:4846   */\n    tag_103:\n        /* \"#utility.yul\":4806:4813   */\n      0x00\n        /* \"#utility.yul\":4835:4840   */\n      dup2\n        /* \"#utility.yul\":4824:4840   */\n      swap1\n      pop\n        /* \"#utility.yul\":4769:4846   */\n      swap2\n      swap1\n      pop\n      jump\t// out\n        /* \"#utility.yul\":4852:5018   */\n    tag_127:\n        /* \"#utility.yul\":4921:4926   */\n      0x00\n        /* \"#utility.yul\":4946:5012   */\n      tag_129\n        /* \"#utility.yul\":4977:5011   */\n      tag_130\n        /* \"#utility.yul\":5000:5010   */\n      dup4\n        /* \"#utility.yul\":4977:5011   */\n      tag_131\n      jump\t// in\n    tag_130:\n        /* \"#utility.yul\":4946:5012   */\n      tag_120\n      jump\t// in\n    tag_129:\n        /* \"#utility.yul\":4937:5012   */\n      swap1\n      pop\n        /* \"#utility.yul\":4852:5018   */\n      swap2\n      swap1\n      pop\n      jump\t// out\n        /* \"#utility.yul\":5024:5103   */\n    tag_104:\n        /* \"#utility.yul\":5063:5070   */\n      0x00\n        /* \"#utility.yul\":5092:5097   */\n      dup2\n        /* \"#utility.yul\":5081:5097   */\n      swap1\n      pop\n        /* \"#utility.yul\":5024:5103   */\n      swap2\n      swap1\n      pop\n      jump\t// out\n        /* \"#utility.yul\":5109:5285   */\n    tag_27:\n        /* \"#utility.yul\":5141:5142   */\n      0x00\n        /* \"#utility.yul\":5158:5178   */\n      tag_134\n        /* \"#utility.yul\":5176:5177   */\n      dup3\n        /* \"#utility.yul\":5158:5178   */\n      tag_103\n      jump\t// in\n    tag_134:\n        /* \"#utility.yul\":5153:5178   */\n      swap2\n      pop\n        /* \"#utility.yul\":5192:5212   */\n      tag_135\n        /* \"#utility.yul\":5210:5211   */\n      dup4\n        /* \"#utility.yul\":5192:5212   */\n      tag_103\n      jump\t// in\n    tag_135:\n        /* \"#utility.yul\":5187:5212   */\n      swap3\n      pop\n        /* \"#utility.yul\":5231:5232   */\n      dup3\n        /* \"#utility.yul\":5221:5256   */\n      tag_136\n      jumpi\n        /* \"#utility.yul\":5236:5254   */\n      tag_137\n      tag_138\n      jump\t// in\n    tag_137:\n        /* \"#utility.yul\":5221:5256   */\n    tag_136:\n        /* \"#utility.yul\":5277:5278   */\n      dup3\n        /* \"#utility.yul\":5274:5275   */\n      dup3\n        /* \"#utility.yul\":5270:5279   */\n      mod\n        /* \"#utility.yul\":5265:5279   */\n      swap1\n      pop\n        /* \"#utility.yul\":5109:5285   */\n      swap3\n      swap2\n      pop\n      pop\n      jump\t// out\n        /* \"#utility.yul\":5291:5471   */\n    tag_138:\n        /* \"#utility.yul\":5339:5416   */\n      0x4e487b7100000000000000000000000000000000000000000000000000000000\n        /* \"#utility.yul\":5336:5337   */\n      0x00\n        /* \"#utility.yul\":5329:5417   */\n      mstore\n        /* \"#utility.yul\":5436:5440   */\n      0x12\n        /* \"#utility.yul\":5433:5434   */\n      0x04\n        /* \"#utility.yul\":5426:5441   */\n      mstore\n        /* \"#utility.yul\":5460:5464   */\n      0x24\n        /* \"#utility.yul\":5457:5458   */\n      0x00\n        /* \"#utility.yul\":5450:5465   */\n      revert\n        /* \"#utility.yul\":5477:5657   */\n    tag_30:\n        /* \"#utility.yul\":5525:5602   */\n      0x4e487b7100000000000000000000000000000000000000000000000000000000\n        /* \"#utility.yul\":5522:5523   */\n      0x00\n        /* \"#utility.yul\":5515:5603   */\n      mstore\n        /* \"#utility.yul\":5622:5626   */\n      0x32\n        /* \"#utility.yul\":5619:5620   */\n      0x04\n        /* \"#utility.yul\":5612:5627   */\n      mstore\n        /* \"#utility.yul\":5646:5650   */\n      0x24\n        /* \"#utility.yul\":5643:5644   */\n      0x00\n        /* \"#utility.yul\":5636:5651   */\n      revert\n        /* \"#utility.yul\":5663:5843   */\n    tag_36:\n        /* \"#utility.yul\":5711:5788   */\n      0x4e487b7100000000000000000000000000000000000000000000000000000000\n        /* \"#utility.yul\":5708:5709   */\n      0x00\n        /* \"#utility.yul\":5701:5789   */\n      mstore\n        /* \"#utility.yul\":5808:5812   */\n      0x41\n        /* \"#utility.yul\":5805:5806   */\n      0x04\n        /* \"#utility.yul\":5798:5813   */\n      mstore\n        /* \"#utility.yul\":5832:5836   */\n      0x24\n        /* \"#utility.yul\":5829:5830   */\n      0x00\n        /* \"#utility.yul\":5822:5837   */\n      revert\n        /* \"#utility.yul\":5849:5993   */\n    tag_89:\n        /* \"#utility.yul\":5904:5909   */\n      0x00\n        /* \"#utility.yul\":5929:5986   */\n      tag_143\n        /* \"#utility.yul\":5980:5984   */\n      dup3\n        /* \"#utility.yul\":5974:5985   */\n      sload\n        /* \"#utility.yul\":5929:5986   */\n      tag_127\n      jump\t// in\n    tag_143:\n        /* \"#utility.yul\":5920:5986   */\n      swap1\n      pop\n        /* \"#utility.yul\":5849:5993   */\n      swap2\n      swap1\n      pop\n      jump\t// out\n        /* \"#utility.yul\":6122:6239   */\n    tag_65:\n        /* \"#utility.yul\":6231:6232   */\n      0x00\n        /* \"#utility.yul\":6228:6229   */\n      dup1\n        /* \"#utility.yul\":6221:6233   */\n      revert\n        /* \"#utility.yul\":6245:6347   */\n    tag_131:\n        /* \"#utility.yul\":6287:6295   */\n      0x00\n        /* \"#utility.yul\":6334:6339   */\n      dup2\n        /* \"#utility.yul\":6331:6332   */\n      0x00\n        /* \"#utility.yul\":6327:6340   */\n      shr\n        /* \"#utility.yul\":6306:6340   */\n      swap1\n      pop\n        /* \"#utility.yul\":6245:6347   */\n      swap2\n      swap1\n      pop\n      jump\t// out\n        /* \"#utility.yul\":6353:6576   */\n    tag_98:\n        /* \"#utility.yul\":6493:6527   */\n      0x65746865722073656e742069732062656c6f77206d696e696d756d2072657175\n        /* \"#utility.yul\":6489:6490   */\n      0x00\n        /* \"#utility.yul\":6481:6487   */\n      dup3\n        /* \"#utility.yul\":6477:6491   */\n      add\n        /* \"#utility.yul\":6470:6528   */\n      mstore\n        /* \"#utility.yul\":6562:6568   */\n      0x6972656400000000000000000000000000000000000000000000000000000000\n        /* \"#utility.yul\":6557:6559   */\n      0x20\n        /* \"#utility.yul\":6549:6555   */\n      dup3\n        /* \"#utility.yul\":6545:6560   */\n      add\n        /* \"#utility.yul\":6538:6569   */\n      mstore\n        /* \"#utility.yul\":6353:6576   */\n      pop\n      jump\t// out\n        /* \"#utility.yul\":6582:6704   */\n    tag_61:\n        /* \"#utility.yul\":6655:6679   */\n      tag_150\n        /* \"#utility.yul\":6673:6678   */\n      dup2\n        /* \"#utility.yul\":6655:6679   */\n      tag_103\n      jump\t// in\n    tag_150:\n        /* \"#utility.yul\":6648:6653   */\n      dup2\n        /* \"#utility.yul\":6645:6680   */\n      eq\n        /* \"#utility.yul\":6635:6698   */\n      tag_151\n      jumpi\n        /* \"#utility.yul\":6694:6695   */\n      0x00\n        /* \"#utility.yul\":6691:6692   */\n      dup1\n        /* \"#utility.yul\":6684:6696   */\n      revert\n        /* \"#utility.yul\":6635:6698   */\n    tag_151:\n        /* \"#utility.yul\":6582:6704   */\n      pop\n      jump\t// out\n\n    auxdata: 0xa2646970667358221220c83b1bca29a7b953878832331654d6c23627d740ab7f2787d824ec919be9230964736f6c63430008070033\n}\n",
				"bytecode": {
					"linkReferences": {},
					"object": "608060405234801561001057600080fd5b50336000806101000a81548173ffffffffffffffffffffffffffffffffffffffff021916908373ffffffffffffffffffffffffffffffffffffffff1602179055506107eb806100606000396000f3fe60806040526004361061003f5760003560e01c8063481c6a75146100445780635d495aea1461006f578063e97dcb6214610086578063f71d96cb14610090575b600080fd5b34801561005057600080fd5b506100596100cd565b6040516100669190610568565b60405180910390f35b34801561007b57600080fd5b506100846100f1565b005b61008e61024d565b005b34801561009c57600080fd5b506100b760048036038101906100b2919061042d565b6102fc565b6040516100c49190610568565b60405180910390f35b60008054906101000a900473ffffffffffffffffffffffffffffffffffffffff1681565b60008054906101000a900473ffffffffffffffffffffffffffffffffffffffff1673ffffffffffffffffffffffffffffffffffffffff163373ffffffffffffffffffffffffffffffffffffffff161461014957600080fd5b600060018054905061015961033b565b610163919061066c565b905060018181548110610179576101786106cc565b5b9060005260206000200160009054906101000a900473ffffffffffffffffffffffffffffffffffffffff1673ffffffffffffffffffffffffffffffffffffffff166108fc479081150290604051600060405180830381858888f193505050501580156101e9573d6000803e3d6000fd5b50600067ffffffffffffffff811115610205576102046106fb565b5b6040519080825280602002602001820160405280156102335781602001602082028036833780820191505090505b5060019080519060200190610249929190610371565b5050565b67016345785d8a00003411610297576040517f08c379a000000000000000000000000000000000000000000000000000000000815260040161028e90610583565b60405180910390fd5b6001339080600181540180825580915050600190039060005260206000200160009091909190916101000a81548173ffffffffffffffffffffffffffffffffffffffff021916908373ffffffffffffffffffffffffffffffffffffffff160217905550565b6001818154811061030c57600080fd5b906000526020600020016000915054906101000a900473ffffffffffffffffffffffffffffffffffffffff1681565b6000444260016040516020016103539392919061052f565b6040516020818303038152906040528051906020012060001c905090565b8280548282559060005260206000209081019282156103ea579160200282015b828111156103e95782518260006101000a81548173ffffffffffffffffffffffffffffffffffffffff021916908373ffffffffffffffffffffffffffffffffffffffff16021790555091602001919060010190610391565b5b5090506103f791906103fb565b5090565b5b808211156104145760008160009055506001016103fc565b5090565b6000813590506104278161079e565b92915050565b6000602082840312156104435761044261073d565b5b600061045184828501610418565b91505092915050565b60006104668383610481565b60208301905092915050565b61047b8161060c565b82525050565b61048a8161060c565b82525050565b600061049b826105b8565b6104a581856105d0565b93506104b0836105a3565b8060005b838110156104e8576104c58261072a565b6104cf888261045a565b97506104da836105c3565b9250506001810190506104b4565b5085935050505092915050565b60006105026024836105db565b915061050d8261074f565b604082019050919050565b6105296105248261063e565b610662565b82525050565b600061053b8286610518565b60208201915061054b8285610518565b60208201915061055b8284610490565b9150819050949350505050565b600060208201905061057d6000830184610472565b92915050565b6000602082019050818103600083015261059c816104f5565b9050919050565b60008190508160005260206000209050919050565b600081549050919050565b6000600182019050919050565b600081905092915050565b600082825260208201905092915050565b600073ffffffffffffffffffffffffffffffffffffffff82169050919050565b60006106178261061e565b9050919050565b600073ffffffffffffffffffffffffffffffffffffffff82169050919050565b6000819050919050565b600061065b61065683610742565b6105ec565b9050919050565b6000819050919050565b60006106778261063e565b91506106828361063e565b9250826106925761069161069d565b5b828206905092915050565b7f4e487b7100000000000000000000000000000000000000000000000000000000600052601260045260246000fd5b7f4e487b7100000000000000000000000000000000000000000000000000000000600052603260045260246000fd5b7f4e487b7100000000000000000000000000000000000000000000000000000000600052604160045260246000fd5b60006107368254610648565b9050919050565b600080fd5b60008160001c9050919050565b7f65746865722073656e742069732062656c6f77206d696e696d756d207265717560008201527f6972656400000000000000000000000000000000000000000000000000000000602082015250565b6107a78161063e565b81146107b257600080fd5b5056fea2646970667358221220c83b1bca29a7b953878832331654d6c23627d740ab7f2787d824ec919be9230964736f6c63430008070033",
					"opcodes": "PUSH1 0x80 PUSH1 0x40 MSTORE CALLVALUE DUP1 ISZERO PUSH2 0x10 JUMPI PUSH1 0x0 DUP1 REVERT JUMPDEST POP CALLER PUSH1 0x0 DUP1 PUSH2 0x100 EXP DUP2 SLOAD DUP2 PUSH20 0xFFFFFFFFFFFFFFFFFFFFFFFFFFFFFFFFFFFFFFFF MUL NOT AND SWAP1 DUP4 PUSH20 0xFFFFFFFFFFFFFFFFFFFFFFFFFFFFFFFFFFFFFFFF AND MUL OR SWAP1 SSTORE POP PUSH2 0x7EB DUP1 PUSH2 0x60 PUSH1 0x0 CODECOPY PUSH1 0x0 RETURN INVALID PUSH1 0x80 PUSH1 0x40 MSTORE PUSH1 0x4 CALLDATASIZE LT PUSH2 0x3F JUMPI PUSH1 0x0 CALLDATALOAD PUSH1 0xE0 SHR DUP1 PUSH4 0x481C6A75 EQ PUSH2 0x44 JUMPI DUP1 PUSH4 0x5D495AEA EQ PUSH2 0x6F JUMPI DUP1 PUSH4 0xE97DCB62 EQ PUSH2 0x86 JUMPI DUP1 PUSH4 0xF71D96CB EQ PUSH2 0x90 JUMPI JUMPDEST PUSH1 0x0 DUP1 REVERT JUMPDEST CALLVALUE DUP1 ISZERO PUSH2 0x50 JUMPI PUSH1 0x0 DUP1 REVERT JUMPDEST POP PUSH2 0x59 PUSH2 0xCD JUMP JUMPDEST PUSH1 0x40 MLOAD PUSH2 0x66 SWAP2 SWAP1 PUSH2 0x568 JUMP JUMPDEST PUSH1 0x40 MLOAD DUP1 SWAP2 SUB SWAP1 RETURN JUMPDEST CALLVALUE DUP1 ISZERO PUSH2 0x7B JUMPI PUSH1 0x0 DUP1 REVERT JUMPDEST POP PUSH2 0x84 PUSH2 0xF1 JUMP JUMPDEST STOP JUMPDEST PUSH2 0x8E PUSH2 0x24D JUMP JUMPDEST STOP JUMPDEST CALLVALUE DUP1 ISZERO PUSH2 0x9C JUMPI PUSH1 0x0 DUP1 REVERT JUMPDEST POP PUSH2 0xB7 PUSH1 0x4 DUP1 CALLDATASIZE SUB DUP2 ADD SWAP1 PUSH2 0xB2 SWAP2 SWAP1 PUSH2 0x42D JUMP JUMPDEST PUSH2 0x2FC JUMP JUMPDEST PUSH1 0x40 MLOAD PUSH2 0xC4 SWAP2 SWAP1 PUSH2 0x568 JUMP JUMPDEST PUSH1 0x40 MLOAD DUP1 SWAP2 SUB SWAP1 RETURN JUMPDEST PUSH1 0x0 DUP1 SLOAD SWAP1 PUSH2 0x100 EXP SWAP1 DIV PUSH20 0xFFFFFFFFFFFFFFFFFFFFFFFFFFFFFFFFFFFFFFFF AND DUP2 JUMP JUMPDEST PUSH1 0x0 DUP1 SLOAD SWAP1 PUSH2 0x100 EXP SWAP1 DIV PUSH20 0xFFFFFFFFFFFFFFFFFFFFFFFFFFFFFFFFFFFFFFFF AND PUSH20 0xFFFFFFFFFFFFFFFFFFFFFFFFFFFFFFFFFFFFFFFF AND CALLER PUSH20 0xFFFFFFFFFFFFFFFFFFFFFFFFFFFFFFFFFFFFFFFF AND EQ PUSH2 0x149 JUMPI PUSH1 0x0 DUP1 REVERT JUMPDEST PUSH1 0x0 PUSH1 0x1 DUP1 SLOAD SWAP1 POP PUSH2 0x159 PUSH2 0x33B JUMP JUMPDEST PUSH2 0x163 SWAP2 SWAP1 PUSH2 0x66C JUMP JUMPDEST SWAP1 POP PUSH1 0x1 DUP2 DUP2 SLOAD DUP2 LT PUSH2 0x179 JUMPI PUSH2 0x178 PUSH2 0x6CC JUMP JUMPDEST JUMPDEST SWAP1 PUSH1 0x0 MSTORE PUSH1 0x20 PUSH1 0x0 KECCAK256 ADD PUSH1 0x0 SWAP1 SLOAD SWAP1 PUSH2 0x100 EXP SWAP1 DIV PUSH20 0xFFFFFFFFFFFFFFFFFFFFFFFFFFFFFFFFFFFFFFFF AND PUSH20 0xFFFFFFFFFFFFFFFFFFFFFFFFFFFFFFFFFFFFFFFF AND PUSH2 0x8FC SELFBALANCE SWAP1 DUP2 ISZERO MUL SWAP1 PUSH1 0x40 MLOAD PUSH1 0x0 PUSH1 0x40 MLOAD DUP1 DUP4 SUB DUP2 DUP6 DUP9 DUP9 CALL SWAP4 POP POP POP POP ISZERO DUP1 ISZERO PUSH2 0x1E9 JUMPI RETURNDATASIZE PUSH1 0x0 DUP1 RETURNDATACOPY RETURNDATASIZE PUSH1 0x0 REVERT JUMPDEST POP PUSH1 0x0 PUSH8 0xFFFFFFFFFFFFFFFF DUP2 GT ISZERO PUSH2 0x205 JUMPI PUSH2 0x204 PUSH2 0x6FB JUMP JUMPDEST JUMPDEST PUSH1 0x40 MLOAD SWAP1 DUP1 DUP3 MSTORE DUP1 PUSH1 0x20 MUL PUSH1 0x20 ADD DUP3 ADD PUSH1 0x40 MSTORE DUP1 ISZERO PUSH2 0x233 JUMPI DUP2 PUSH1 0x20 ADD PUSH1 0x20 DUP3 MUL DUP1 CALLDATASIZE DUP4 CALLDATACOPY DUP1 DUP3 ADD SWAP2 POP POP SWAP1 POP JUMPDEST POP PUSH1 0x1 SWAP1 DUP1 MLOAD SWAP1 PUSH1 0x20 ADD SWAP1 PUSH2 0x249 SWAP3 SWAP2 SWAP1 PUSH2 0x371 JUMP JUMPDEST POP POP JUMP JUMPDEST PUSH8 0x16345785D8A0000 CALLVALUE GT PUSH2 0x297 JUMPI PUSH1 0x40 MLOAD PUSH32 0x8C379A000000000000000000000000000000000000000000000000000000000 DUP2 MSTORE PUSH1 0x4 ADD PUSH2 0x28E SWAP1 PUSH2 0x583 JUMP JUMPDEST PUSH1 0x40 MLOAD DUP1 SWAP2 SUB SWAP1 REVERT JUMPDEST PUSH1 0x1 CALLER SWAP1 DUP1 PUSH1 0x1 DUP2 SLOAD ADD DUP1 DUP3 SSTORE DUP1 SWAP2 POP POP PUSH1 0x1 SWAP1 SUB SWAP1 PUSH1 0x0 MSTORE PUSH1 0x20 PUSH1 0x0 KECCAK256 ADD PUSH1 0x0 SWAP1 SWAP2 SWAP1 SWAP2 SWAP1 SWAP2 PUSH2 0x100 EXP DUP2 SLOAD DUP2 PUSH20 0xFFFFFFFFFFFFFFFFFFFFFFFFFFFFFFFFFFFFFFFF MUL NOT AND SWAP1 DUP4 PUSH20 0xFFFFFFFFFFFFFFFFFFFFFFFFFFFFFFFFFFFFFFFF AND MUL OR SWAP1 SSTORE POP JUMP JUMPDEST PUSH1 0x1 DUP2 DUP2 SLOAD DUP2 LT PUSH2 0x30C JUMPI PUSH1 0x0 DUP1 REVERT JUMPDEST SWAP1 PUSH1 0x0 MSTORE PUSH1 0x20 PUSH1 0x0 KECCAK256 ADD PUSH1 0x0 SWAP2 POP SLOAD SWAP1 PUSH2 0x100 EXP SWAP1 DIV PUSH20 0xFFFFFFFFFFFFFFFFFFFFFFFFFFFFFFFFFFFFFFFF AND DUP2 JUMP JUMPDEST PUSH1 0x0 DIFFICULTY TIMESTAMP PUSH1 0x1 PUSH1 0x40 MLOAD PUSH1 0x20 ADD PUSH2 0x353 SWAP4 SWAP3 SWAP2 SWAP1 PUSH2 0x52F JUMP JUMPDEST PUSH1 0x40 MLOAD PUSH1 0x20 DUP2 DUP4 SUB SUB DUP2 MSTORE SWAP1 PUSH1 0x40 MSTORE DUP1 MLOAD SWAP1 PUSH1 0x20 ADD KECCAK256 PUSH1 0x0 SHR SWAP1 POP SWAP1 JUMP JUMPDEST DUP3 DUP1 SLOAD DUP3 DUP3 SSTORE SWAP1 PUSH1 0x0 MSTORE PUSH1 0x20 PUSH1 0x0 KECCAK256 SWAP1 DUP2 ADD SWAP3 DUP3 ISZERO PUSH2 0x3EA JUMPI SWAP2 PUSH1 0x20 MUL DUP3 ADD JUMPDEST DUP3 DUP2 GT ISZERO PUSH2 0x3E9 JUMPI DUP3 MLOAD DUP3 PUSH1 0x0 PUSH2 0x100 EXP DUP2 SLOAD DUP2 PUSH20 0xFFFFFFFFFFFFFFFFFFFFFFFFFFFFFFFFFFFFFFFF MUL NOT AND SWAP1 DUP4 PUSH20 0xFFFFFFFFFFFFFFFFFFFFFFFFFFFFFFFFFFFFFFFF AND MUL OR SWAP1 SSTORE POP SWAP2 PUSH1 0x20 ADD SWAP2 SWAP1 PUSH1 0x1 ADD SWAP1 PUSH2 0x391 JUMP JUMPDEST JUMPDEST POP SWAP1 POP PUSH2 0x3F7 SWAP2 SWAP1 PUSH2 0x3FB JUMP JUMPDEST POP SWAP1 JUMP JUMPDEST JUMPDEST DUP1 DUP3 GT ISZERO PUSH2 0x414 JUMPI PUSH1 0x0 DUP2 PUSH1 0x0 SWAP1 SSTORE POP PUSH1 0x1 ADD PUSH2 0x3FC JUMP JUMPDEST POP SWAP1 JUMP JUMPDEST PUSH1 0x0 DUP2 CALLDATALOAD SWAP1 POP PUSH2 0x427 DUP2 PUSH2 0x79E JUMP JUMPDEST SWAP3 SWAP2 POP POP JUMP JUMPDEST PUSH1 0x0 PUSH1 0x20 DUP3 DUP5 SUB SLT ISZERO PUSH2 0x443 JUMPI PUSH2 0x442 PUSH2 0x73D JUMP JUMPDEST JUMPDEST PUSH1 0x0 PUSH2 0x451 DUP5 DUP3 DUP6 ADD PUSH2 0x418 JUMP JUMPDEST SWAP2 POP POP SWAP3 SWAP2 POP POP JUMP JUMPDEST PUSH1 0x0 PUSH2 0x466 DUP4 DUP4 PUSH2 0x481 JUMP JUMPDEST PUSH1 0x20 DUP4 ADD SWAP1 POP SWAP3 SWAP2 POP POP JUMP JUMPDEST PUSH2 0x47B DUP2 PUSH2 0x60C JUMP JUMPDEST DUP3 MSTORE POP POP JUMP JUMPDEST PUSH2 0x48A DUP2 PUSH2 0x60C JUMP JUMPDEST DUP3 MSTORE POP POP JUMP JUMPDEST PUSH1 0x0 PUSH2 0x49B DUP3 PUSH2 0x5B8 JUMP JUMPDEST PUSH2 0x4A5 DUP2 DUP6 PUSH2 0x5D0 JUMP JUMPDEST SWAP4 POP PUSH2 0x4B0 DUP4 PUSH2 0x5A3 JUMP JUMPDEST DUP1 PUSH1 0x0 JUMPDEST DUP4 DUP2 LT ISZERO PUSH2 0x4E8 JUMPI PUSH2 0x4C5 DUP3 PUSH2 0x72A JUMP JUMPDEST PUSH2 0x4CF DUP9 DUP3 PUSH2 0x45A JUMP JUMPDEST SWAP8 POP PUSH2 0x4DA DUP4 PUSH2 0x5C3 JUMP JUMPDEST SWAP3 POP POP PUSH1 0x1 DUP2 ADD SWAP1 POP PUSH2 0x4B4 JUMP JUMPDEST POP DUP6 SWAP4 POP POP POP POP SWAP3 SWAP2 POP POP JUMP JUMPDEST PUSH1 0x0 PUSH2 0x502 PUSH1 0x24 DUP4 PUSH2 0x5DB JUMP JUMPDEST SWAP2 POP PUSH2 0x50D DUP3 PUSH2 0x74F JUMP JUMPDEST PUSH1 0x40 DUP3 ADD SWAP1 POP SWAP2 SWAP1 POP JUMP JUMPDEST PUSH2 0x529 PUSH2 0x524 DUP3 PUSH2 0x63E JUMP JUMPDEST PUSH2 0x662 JUMP JUMPDEST DUP3 MSTORE POP POP JUMP JUMPDEST PUSH1 0x0 PUSH2 0x53B DUP3 DUP7 PUSH2 0x518 JUMP JUMPDEST PUSH1 0x20 DUP3 ADD SWAP2 POP PUSH2 0x54B DUP3 DUP6 PUSH2 0x518 JUMP JUMPDEST PUSH1 0x20 DUP3 ADD SWAP2 POP PUSH2 0x55B DUP3 DUP5 PUSH2 0x490 JUMP JUMPDEST SWAP2 POP DUP2 SWAP1 POP SWAP5 SWAP4 POP POP POP POP JUMP JUMPDEST PUSH1 0x0 PUSH1 0x20 DUP3 ADD SWAP1 POP PUSH2 0x57D PUSH1 0x0 DUP4 ADD DUP5 PUSH2 0x472 JUMP JUMPDEST SWAP3 SWAP2 POP POP JUMP JUMPDEST PUSH1 0x0 PUSH1 0x20 DUP3 ADD SWAP1 POP DUP2 DUP2 SUB PUSH1 0x0 DUP4 ADD MSTORE PUSH2 0x59C DUP2 PUSH2 0x4F5 JUMP JUMPDEST SWAP1 POP SWAP2 SWAP1 POP JUMP JUMPDEST PUSH1 0x0 DUP2 SWAP1 POP DUP2 PUSH1 0x0 MSTORE PUSH1 0x20 PUSH1 0x0 KECCAK256 SWAP1 POP SWAP2 SWAP1 POP JUMP JUMPDEST PUSH1 0x0 DUP2 SLOAD SWAP1 POP SWAP2 SWAP1 POP JUMP JUMPDEST PUSH1 0x0 PUSH1 0x1 DUP3 ADD SWAP1 POP SWAP2 SWAP1 POP JUMP JUMPDEST PUSH1 0x0 DUP2 SWAP1 POP SWAP3 SWAP2 POP POP JUMP JUMPDEST PUSH1 0x0 DUP3 DUP3 MSTORE PUSH1 0x20 DUP3 ADD SWAP1 POP SWAP3 SWAP2 POP POP JUMP JUMPDEST PUSH1 0x0 PUSH20 0xFFFFFFFFFFFFFFFFFFFFFFFFFFFFFFFFFFFFFFFF DUP3 AND SWAP1 POP SWAP2 SWAP1 POP JUMP JUMPDEST PUSH1 0x0 PUSH2 0x617 DUP3 PUSH2 0x61E JUMP JUMPDEST SWAP1 POP SWAP2 SWAP1 POP JUMP JUMPDEST PUSH1 0x0 PUSH20 0xFFFFFFFFFFFFFFFFFFFFFFFFFFFFFFFFFFFFFFFF DUP3 AND SWAP1 POP SWAP2 SWAP1 POP JUMP JUMPDEST PUSH1 0x0 DUP2 SWAP1 POP SWAP2 SWAP1 POP JUMP JUMPDEST PUSH1 0x0 PUSH2 0x65B PUSH2 0x656 DUP4 PUSH2 0x742 JUMP JUMPDEST PUSH2 0x5EC JUMP JUMPDEST SWAP1 POP SWAP2 SWAP1 POP JUMP JUMPDEST PUSH1 0x0 DUP2 SWAP1 POP SWAP2 SWAP1 POP JUMP JUMPDEST PUSH1 0x0 PUSH2 0x677 DUP3 PUSH2 0x63E JUMP JUMPDEST SWAP2 POP PUSH2 0x682 DUP4 PUSH2 0x63E JUMP JUMPDEST SWAP3 POP DUP3 PUSH2 0x692 JUMPI PUSH2 0x691 PUSH2 0x69D JUMP JUMPDEST JUMPDEST DUP3 DUP3 MOD SWAP1 POP SWAP3 SWAP2 POP POP JUMP JUMPDEST PUSH32 0x4E487B7100000000000000000000000000000000000000000000000000000000 PUSH1 0x0 MSTORE PUSH1 0x12 PUSH1 0x4 MSTORE PUSH1 0x24 PUSH1 0x0 REVERT JUMPDEST PUSH32 0x4E487B7100000000000000000000000000000000000000000000000000000000 PUSH1 0x0 MSTORE PUSH1 0x32 PUSH1 0x4 MSTORE PUSH1 0x24 PUSH1 0x0 REVERT JUMPDEST PUSH32 0x4E487B7100000000000000000000000000000000000000000000000000000000 PUSH1 0x0 MSTORE PUSH1 0x41 PUSH1 0x4 MSTORE PUSH1 0x24 PUSH1 0x0 REVERT JUMPDEST PUSH1 0x0 PUSH2 0x736 DUP3 SLOAD PUSH2 0x648 JUMP JUMPDEST SWAP1 POP SWAP2 SWAP1 POP JUMP JUMPDEST PUSH1 0x0 DUP1 REVERT JUMPDEST PUSH1 0x0 DUP2 PUSH1 0x0 SHR SWAP1 POP SWAP2 SWAP1 POP JUMP JUMPDEST PUSH32 0x65746865722073656E742069732062656C6F77206D696E696D756D2072657175 PUSH1 0x0 DUP3 ADD MSTORE PUSH32 0x6972656400000000000000000000000000000000000000000000000000000000 PUSH1 0x20 DUP3 ADD MSTORE POP JUMP JUMPDEST PUSH2 0x7A7 DUP2 PUSH2 0x63E JUMP JUMPDEST DUP2 EQ PUSH2 0x7B2 JUMPI PUSH1 0x0 DUP1 REVERT JUMPDEST POP JUMP INVALID LOG2 PUSH5 0x6970667358 0x22 SLT KECCAK256 0xC8 EXTCODESIZE SHL 0xCA 0x29 0xA7 0xB9 MSTORE8 DUP8 DUP9 ORIGIN CALLER AND SLOAD 0xD6 0xC2 CALLDATASIZE 0x27 0xD7 BLOCKHASH 0xAB PUSH32 0x2787D824EC919BE9230964736F6C634300080700330000000000000000000000 "
				},
				"gasEstimates": {
					"creation": {
						"codeDepositCost": "405400",
						"executionCost": "24709",
						"totalCost": "430109"
					},
					"external": {
						"enter()": "48742",
						"manager()": "2489",
						"pickWinner()": "infinite",
						"players(uint256)": "5000"
					},
					"internal": {
						"random()": "infinite"
					}
				},
				"methodIdentifiers": {
					"enter()": "e97dcb62",
					"manager()": "481c6a75",
					"pickWinner()": "5d495aea",
					"players(uint256)": "f71d96cb"
				}
			},
			"storageLayout": {
				"storage": [
					{
						"astId": 3,
						"contract": "contracts/Lottery.sol:Lottery",
						"label": "manager",
						"offset": 0,
						"slot": "0",
						"type": "t_address"
					},
					{
						"astId": 6,
						"contract": "contracts/Lottery.sol:Lottery",
						"label": "players",
						"offset": 0,
						"slot": "1",
						"type": "t_array(t_address)dyn_storage"
					}
				],
				"types": {
					"t_address": {
						"encoding": "inplace",
						"label": "address",
						"numberOfBytes": "20"
					},
					"t_array(t_address)dyn_storage": {
						"base": "t_address",
						"encoding": "dynamic_array",
						"label": "address[]",
						"numberOfBytes": "32"
					}
				}
			},
			"userdoc": {
				"kind": "user",
				"methods": {},
				"version": 1
			}
		}
	}
}